{
  "address": "0xCF84e41D4Fa14Cd8B46E086Cb56a89Aaa4C53693",
  "abi": [
    {
      "inputs": [
        {
          "internalType": "contract ERC20",
          "name": "_asset",
          "type": "address"
        },
        {
          "internalType": "string",
          "name": "_name",
          "type": "string"
        },
        {
          "internalType": "string",
          "name": "_symbol",
          "type": "string"
        },
        {
          "internalType": "uint256",
          "name": "max",
          "type": "uint256"
        },
        {
          "internalType": "uint256",
          "name": "min",
          "type": "uint256"
        },
        {
          "internalType": "uint256",
          "name": "fee",
          "type": "uint256"
        },
        {
          "internalType": "address",
          "name": "offchainVerifier",
          "type": "address"
        }
      ],
      "stateMutability": "nonpayable",
      "type": "constructor"
    },
    {
      "inputs": [],
      "name": "AccessControlBadConfirmation",
      "type": "error"
    },
    {
      "inputs": [
        {
          "internalType": "address",
          "name": "account",
          "type": "address"
        },
        {
          "internalType": "bytes32",
          "name": "neededRole",
          "type": "bytes32"
        }
      ],
      "name": "AccessControlUnauthorizedAccount",
      "type": "error"
    },
    {
      "inputs": [
        {
          "internalType": "address",
          "name": "target",
          "type": "address"
        }
      ],
      "name": "AddressEmptyCode",
      "type": "error"
    },
    {
      "inputs": [
        {
          "internalType": "address",
          "name": "account",
          "type": "address"
        }
      ],
      "name": "AddressInsufficientBalance",
      "type": "error"
    },
    {
      "inputs": [
        {
          "internalType": "address",
          "name": "spender",
          "type": "address"
        },
        {
          "internalType": "uint256",
          "name": "allowance",
          "type": "uint256"
        },
        {
          "internalType": "uint256",
          "name": "needed",
          "type": "uint256"
        }
      ],
      "name": "ERC20InsufficientAllowance",
      "type": "error"
    },
    {
      "inputs": [
        {
          "internalType": "address",
          "name": "sender",
          "type": "address"
        },
        {
          "internalType": "uint256",
          "name": "balance",
          "type": "uint256"
        },
        {
          "internalType": "uint256",
          "name": "needed",
          "type": "uint256"
        }
      ],
      "name": "ERC20InsufficientBalance",
      "type": "error"
    },
    {
      "inputs": [
        {
          "internalType": "address",
          "name": "approver",
          "type": "address"
        }
      ],
      "name": "ERC20InvalidApprover",
      "type": "error"
    },
    {
      "inputs": [
        {
          "internalType": "address",
          "name": "receiver",
          "type": "address"
        }
      ],
      "name": "ERC20InvalidReceiver",
      "type": "error"
    },
    {
      "inputs": [
        {
          "internalType": "address",
          "name": "sender",
          "type": "address"
        }
      ],
      "name": "ERC20InvalidSender",
      "type": "error"
    },
    {
      "inputs": [
        {
          "internalType": "address",
          "name": "spender",
          "type": "address"
        }
      ],
      "name": "ERC20InvalidSpender",
      "type": "error"
    },
    {
      "inputs": [
        {
          "internalType": "address",
          "name": "receiver",
          "type": "address"
        },
        {
          "internalType": "uint256",
          "name": "assets",
          "type": "uint256"
        },
        {
          "internalType": "uint256",
          "name": "max",
          "type": "uint256"
        }
      ],
      "name": "ERC4626ExceededMaxDeposit",
      "type": "error"
    },
    {
      "inputs": [
        {
          "internalType": "address",
          "name": "receiver",
          "type": "address"
        },
        {
          "internalType": "uint256",
          "name": "shares",
          "type": "uint256"
        },
        {
          "internalType": "uint256",
          "name": "max",
          "type": "uint256"
        }
      ],
      "name": "ERC4626ExceededMaxMint",
      "type": "error"
    },
    {
      "inputs": [
        {
          "internalType": "address",
          "name": "owner",
          "type": "address"
        },
        {
          "internalType": "uint256",
          "name": "shares",
          "type": "uint256"
        },
        {
          "internalType": "uint256",
          "name": "max",
          "type": "uint256"
        }
      ],
      "name": "ERC4626ExceededMaxRedeem",
      "type": "error"
    },
    {
      "inputs": [
        {
          "internalType": "address",
          "name": "owner",
          "type": "address"
        },
        {
          "internalType": "uint256",
          "name": "assets",
          "type": "uint256"
        },
        {
          "internalType": "uint256",
          "name": "max",
          "type": "uint256"
        }
      ],
      "name": "ERC4626ExceededMaxWithdraw",
      "type": "error"
    },
    {
      "inputs": [],
      "name": "FailedInnerCall",
      "type": "error"
    },
    {
      "inputs": [],
      "name": "MathOverflowedMulDiv",
      "type": "error"
    },
    {
      "inputs": [
        {
          "internalType": "address",
          "name": "token",
          "type": "address"
        }
      ],
      "name": "SafeERC20FailedOperation",
      "type": "error"
    },
    {
      "anonymous": false,
      "inputs": [
        {
          "indexed": true,
          "internalType": "address",
          "name": "owner",
          "type": "address"
        },
        {
          "indexed": true,
          "internalType": "address",
          "name": "spender",
          "type": "address"
        },
        {
          "indexed": false,
          "internalType": "uint256",
          "name": "value",
          "type": "uint256"
        }
      ],
      "name": "Approval",
      "type": "event"
    },
    {
      "anonymous": false,
      "inputs": [
        {
          "indexed": true,
          "internalType": "address",
          "name": "sender",
          "type": "address"
        },
        {
          "indexed": true,
          "internalType": "address",
          "name": "owner",
          "type": "address"
        },
        {
          "indexed": false,
          "internalType": "uint256",
          "name": "assets",
          "type": "uint256"
        },
        {
          "indexed": false,
          "internalType": "uint256",
          "name": "shares",
          "type": "uint256"
        }
      ],
      "name": "Deposit",
      "type": "event"
    },
    {
      "anonymous": false,
      "inputs": [
        {
          "indexed": false,
          "internalType": "string",
          "name": "payment_id",
          "type": "string"
        },
        {
          "indexed": false,
          "internalType": "string",
          "name": "payment_platform",
          "type": "string"
        },
        {
          "indexed": false,
          "internalType": "uint256",
          "name": "depositAmount",
          "type": "uint256"
        },
        {
          "indexed": false,
          "internalType": "address",
          "name": "offramper",
          "type": "address"
        }
      ],
      "name": "OffRamp",
      "type": "event"
    },
    {
      "anonymous": false,
      "inputs": [
        {
          "indexed": true,
          "internalType": "bytes32",
          "name": "role",
          "type": "bytes32"
        },
        {
          "indexed": true,
          "internalType": "bytes32",
          "name": "previousAdminRole",
          "type": "bytes32"
        },
        {
          "indexed": true,
          "internalType": "bytes32",
          "name": "newAdminRole",
          "type": "bytes32"
        }
      ],
      "name": "RoleAdminChanged",
      "type": "event"
    },
    {
      "anonymous": false,
      "inputs": [
        {
          "indexed": true,
          "internalType": "bytes32",
          "name": "role",
          "type": "bytes32"
        },
        {
          "indexed": true,
          "internalType": "address",
          "name": "account",
          "type": "address"
        },
        {
          "indexed": true,
          "internalType": "address",
          "name": "sender",
          "type": "address"
        }
      ],
      "name": "RoleGranted",
      "type": "event"
    },
    {
      "anonymous": false,
      "inputs": [
        {
          "indexed": true,
          "internalType": "bytes32",
          "name": "role",
          "type": "bytes32"
        },
        {
          "indexed": true,
          "internalType": "address",
          "name": "account",
          "type": "address"
        },
        {
          "indexed": true,
          "internalType": "address",
          "name": "sender",
          "type": "address"
        }
      ],
      "name": "RoleRevoked",
      "type": "event"
    },
    {
      "anonymous": false,
      "inputs": [
        {
          "indexed": true,
          "internalType": "address",
          "name": "from",
          "type": "address"
        },
        {
          "indexed": true,
          "internalType": "address",
          "name": "to",
          "type": "address"
        },
        {
          "indexed": false,
          "internalType": "uint256",
          "name": "value",
          "type": "uint256"
        }
      ],
      "name": "Transfer",
      "type": "event"
    },
    {
      "anonymous": false,
      "inputs": [
        {
          "indexed": true,
          "internalType": "address",
          "name": "sender",
          "type": "address"
        },
        {
          "indexed": true,
          "internalType": "address",
          "name": "receiver",
          "type": "address"
        },
        {
          "indexed": true,
          "internalType": "address",
          "name": "owner",
          "type": "address"
        },
        {
          "indexed": false,
          "internalType": "uint256",
          "name": "assets",
          "type": "uint256"
        },
        {
          "indexed": false,
          "internalType": "uint256",
          "name": "shares",
          "type": "uint256"
        }
      ],
      "name": "Withdraw",
      "type": "event"
    },
    {
      "inputs": [],
      "name": "DEFAULT_ADMIN_ROLE",
      "outputs": [
        {
          "internalType": "bytes32",
          "name": "",
          "type": "bytes32"
        }
      ],
      "stateMutability": "view",
      "type": "function"
    },
    {
      "inputs": [],
      "name": "OFFCHAINVERIFIER_ROLE",
      "outputs": [
        {
          "internalType": "bytes32",
          "name": "",
          "type": "bytes32"
        }
      ],
      "stateMutability": "view",
      "type": "function"
    },
    {
      "inputs": [
        {
          "internalType": "address",
          "name": "owner",
          "type": "address"
        },
        {
          "internalType": "address",
          "name": "spender",
          "type": "address"
        }
      ],
      "name": "allowance",
      "outputs": [
        {
          "internalType": "uint256",
          "name": "",
          "type": "uint256"
        }
      ],
      "stateMutability": "view",
      "type": "function"
    },
    {
      "inputs": [
        {
          "internalType": "address",
          "name": "spender",
          "type": "address"
        },
        {
          "internalType": "uint256",
          "name": "value",
          "type": "uint256"
        }
      ],
      "name": "approve",
      "outputs": [
        {
          "internalType": "bool",
          "name": "",
          "type": "bool"
        }
      ],
      "stateMutability": "nonpayable",
      "type": "function"
    },
    {
      "inputs": [],
      "name": "asset",
      "outputs": [
        {
          "internalType": "address",
          "name": "",
          "type": "address"
        }
      ],
      "stateMutability": "view",
      "type": "function"
    },
    {
      "inputs": [
        {
          "internalType": "address",
          "name": "account",
          "type": "address"
        }
      ],
      "name": "balanceOf",
      "outputs": [
        {
          "internalType": "uint256",
          "name": "",
          "type": "uint256"
        }
      ],
      "stateMutability": "view",
      "type": "function"
    },
    {
      "inputs": [
        {
          "internalType": "uint256",
          "name": "shares",
          "type": "uint256"
        }
      ],
      "name": "convertToAssets",
      "outputs": [
        {
          "internalType": "uint256",
          "name": "",
          "type": "uint256"
        }
      ],
      "stateMutability": "view",
      "type": "function"
    },
    {
      "inputs": [
        {
          "internalType": "uint256",
          "name": "assets",
          "type": "uint256"
        }
      ],
      "name": "convertToShares",
      "outputs": [
        {
          "internalType": "uint256",
          "name": "",
          "type": "uint256"
        }
      ],
      "stateMutability": "view",
      "type": "function"
    },
    {
      "inputs": [],
      "name": "decimals",
      "outputs": [
        {
          "internalType": "uint8",
          "name": "",
          "type": "uint8"
        }
      ],
      "stateMutability": "view",
      "type": "function"
    },
    {
      "inputs": [
        {
          "internalType": "uint256",
          "name": "_assets",
          "type": "uint256"
        },
        {
          "internalType": "address",
          "name": "_receiver",
          "type": "address"
        }
      ],
      "name": "deposit",
      "outputs": [
        {
          "internalType": "uint256",
          "name": "",
          "type": "uint256"
        }
      ],
      "stateMutability": "nonpayable",
      "type": "function"
    },
    {
      "inputs": [
        {
          "internalType": "bytes32",
          "name": "role",
          "type": "bytes32"
        }
      ],
      "name": "getRoleAdmin",
      "outputs": [
        {
          "internalType": "bytes32",
          "name": "",
          "type": "bytes32"
        }
      ],
      "stateMutability": "view",
      "type": "function"
    },
    {
      "inputs": [
        {
          "internalType": "bytes32",
          "name": "role",
          "type": "bytes32"
        },
        {
          "internalType": "address",
          "name": "account",
          "type": "address"
        }
      ],
      "name": "grantRole",
      "outputs": [],
      "stateMutability": "nonpayable",
      "type": "function"
    },
    {
      "inputs": [
        {
          "internalType": "bytes32",
          "name": "role",
          "type": "bytes32"
        },
        {
          "internalType": "address",
          "name": "account",
          "type": "address"
        }
      ],
      "name": "hasRole",
      "outputs": [
        {
          "internalType": "bool",
          "name": "",
          "type": "bool"
        }
      ],
      "stateMutability": "view",
      "type": "function"
    },
    {
      "inputs": [
        {
          "internalType": "address",
          "name": "",
          "type": "address"
        }
      ],
      "name": "maxDeposit",
      "outputs": [
        {
          "internalType": "uint256",
          "name": "",
          "type": "uint256"
        }
      ],
      "stateMutability": "view",
      "type": "function"
    },
    {
      "inputs": [
        {
          "internalType": "address",
          "name": "",
          "type": "address"
        }
      ],
      "name": "maxMint",
      "outputs": [
        {
          "internalType": "uint256",
          "name": "",
          "type": "uint256"
        }
      ],
      "stateMutability": "view",
      "type": "function"
    },
    {
      "inputs": [],
      "name": "maxOnRampAmount",
      "outputs": [
        {
          "internalType": "uint256",
          "name": "",
          "type": "uint256"
        }
      ],
      "stateMutability": "view",
      "type": "function"
    },
    {
      "inputs": [
        {
          "internalType": "address",
          "name": "owner",
          "type": "address"
        }
      ],
      "name": "maxRedeem",
      "outputs": [
        {
          "internalType": "uint256",
          "name": "",
          "type": "uint256"
        }
      ],
      "stateMutability": "view",
      "type": "function"
    },
    {
      "inputs": [
        {
          "internalType": "address",
          "name": "owner",
          "type": "address"
        }
      ],
      "name": "maxWithdraw",
      "outputs": [
        {
          "internalType": "uint256",
          "name": "",
          "type": "uint256"
        }
      ],
      "stateMutability": "view",
      "type": "function"
    },
    {
      "inputs": [],
      "name": "minDepositAmount",
      "outputs": [
        {
          "internalType": "uint256",
          "name": "",
          "type": "uint256"
        }
      ],
      "stateMutability": "view",
      "type": "function"
    },
    {
      "inputs": [
        {
          "internalType": "uint256",
          "name": "shares",
          "type": "uint256"
        },
        {
          "internalType": "address",
          "name": "receiver",
          "type": "address"
        }
      ],
      "name": "mint",
      "outputs": [
        {
          "internalType": "uint256",
          "name": "",
          "type": "uint256"
        }
      ],
      "stateMutability": "nonpayable",
      "type": "function"
    },
    {
      "inputs": [],
      "name": "name",
      "outputs": [
        {
          "internalType": "string",
          "name": "",
          "type": "string"
        }
      ],
      "stateMutability": "view",
      "type": "function"
    },
    {
      "inputs": [
        {
          "internalType": "string",
          "name": "paymentProcessor",
          "type": "string"
        },
        {
          "internalType": "string",
          "name": "ppId",
          "type": "string"
        },
        {
          "internalType": "uint256",
          "name": "amount",
          "type": "uint256"
        },
        {
          "internalType": "address",
          "name": "_receiver",
          "type": "address"
        }
      ],
      "name": "offramp",
      "outputs": [],
      "stateMutability": "nonpayable",
      "type": "function"
    },
    {
      "inputs": [
        {
          "internalType": "uint256",
          "name": "_shares",
          "type": "uint256"
        },
        {
          "internalType": "address",
          "name": "offRamper",
          "type": "address"
        },
        {
          "internalType": "address",
          "name": "_receiver",
          "type": "address"
        }
      ],
      "name": "onramp",
      "outputs": [],
      "stateMutability": "nonpayable",
      "type": "function"
    },
    {
      "inputs": [
        {
          "internalType": "contract ERC20",
          "name": "_asset",
          "type": "address"
        },
        {
          "internalType": "string",
          "name": "_name",
          "type": "string"
        },
        {
          "internalType": "string",
          "name": "_symbol",
          "type": "string"
        },
        {
          "internalType": "uint256",
          "name": "max",
          "type": "uint256"
        },
        {
          "internalType": "uint256",
          "name": "min",
          "type": "uint256"
        },
        {
          "internalType": "uint256",
          "name": "fee",
          "type": "uint256"
        },
        {
          "internalType": "address",
          "name": "offchainVerifier",
          "type": "address"
        }
      ],
      "name": "postUpgrade",
      "outputs": [],
      "stateMutability": "nonpayable",
      "type": "function"
    },
    {
      "inputs": [
        {
          "internalType": "uint256",
          "name": "assets",
          "type": "uint256"
        }
      ],
      "name": "previewDeposit",
      "outputs": [
        {
          "internalType": "uint256",
          "name": "",
          "type": "uint256"
        }
      ],
      "stateMutability": "view",
      "type": "function"
    },
    {
      "inputs": [
        {
          "internalType": "uint256",
          "name": "shares",
          "type": "uint256"
        }
      ],
      "name": "previewMint",
      "outputs": [
        {
          "internalType": "uint256",
          "name": "",
          "type": "uint256"
        }
      ],
      "stateMutability": "view",
      "type": "function"
    },
    {
      "inputs": [
        {
          "internalType": "uint256",
          "name": "shares",
          "type": "uint256"
        }
      ],
      "name": "previewRedeem",
      "outputs": [
        {
          "internalType": "uint256",
          "name": "",
          "type": "uint256"
        }
      ],
      "stateMutability": "view",
      "type": "function"
    },
    {
      "inputs": [
        {
          "internalType": "uint256",
          "name": "assets",
          "type": "uint256"
        }
      ],
      "name": "previewWithdraw",
      "outputs": [
        {
          "internalType": "uint256",
          "name": "",
          "type": "uint256"
        }
      ],
      "stateMutability": "view",
      "type": "function"
    },
    {
      "inputs": [
        {
          "internalType": "uint256",
          "name": "shares",
          "type": "uint256"
        },
        {
          "internalType": "address",
          "name": "receiver",
          "type": "address"
        },
        {
          "internalType": "address",
          "name": "owner",
          "type": "address"
        }
      ],
      "name": "redeem",
      "outputs": [
        {
          "internalType": "uint256",
          "name": "",
          "type": "uint256"
        }
      ],
      "stateMutability": "nonpayable",
      "type": "function"
    },
    {
      "inputs": [
        {
          "internalType": "bytes32",
          "name": "role",
          "type": "bytes32"
        },
        {
          "internalType": "address",
          "name": "callerConfirmation",
          "type": "address"
        }
      ],
      "name": "renounceRole",
      "outputs": [],
      "stateMutability": "nonpayable",
      "type": "function"
    },
    {
      "inputs": [
        {
          "internalType": "bytes32",
          "name": "role",
          "type": "bytes32"
        },
        {
          "internalType": "address",
          "name": "account",
          "type": "address"
        }
      ],
      "name": "revokeRole",
      "outputs": [],
      "stateMutability": "nonpayable",
      "type": "function"
    },
    {
      "inputs": [
        {
          "internalType": "address",
          "name": "",
          "type": "address"
        }
      ],
      "name": "shareHolder",
      "outputs": [
        {
          "internalType": "uint256",
          "name": "",
          "type": "uint256"
        }
      ],
      "stateMutability": "view",
      "type": "function"
    },
    {
      "inputs": [
        {
          "internalType": "bytes4",
          "name": "interfaceId",
          "type": "bytes4"
        }
      ],
      "name": "supportsInterface",
      "outputs": [
        {
          "internalType": "bool",
          "name": "",
          "type": "bool"
        }
      ],
      "stateMutability": "view",
      "type": "function"
    },
    {
      "inputs": [],
      "name": "sustainabilityFee",
      "outputs": [
        {
          "internalType": "uint256",
          "name": "",
          "type": "uint256"
        }
      ],
      "stateMutability": "view",
      "type": "function"
    },
    {
      "inputs": [],
      "name": "sustainabilityFeeRecipient",
      "outputs": [
        {
          "internalType": "address",
          "name": "",
          "type": "address"
        }
      ],
      "stateMutability": "view",
      "type": "function"
    },
    {
      "inputs": [],
      "name": "symbol",
      "outputs": [
        {
          "internalType": "string",
          "name": "",
          "type": "string"
        }
      ],
      "stateMutability": "view",
      "type": "function"
    },
    {
      "inputs": [],
      "name": "totalAssets",
      "outputs": [
        {
          "internalType": "uint256",
          "name": "",
          "type": "uint256"
        }
      ],
      "stateMutability": "view",
      "type": "function"
    },
    {
      "inputs": [],
      "name": "totalSupply",
      "outputs": [
        {
          "internalType": "uint256",
          "name": "",
          "type": "uint256"
        }
      ],
      "stateMutability": "view",
      "type": "function"
    },
    {
      "inputs": [
        {
          "internalType": "address",
          "name": "to",
          "type": "address"
        },
        {
          "internalType": "uint256",
          "name": "value",
          "type": "uint256"
        }
      ],
      "name": "transfer",
      "outputs": [
        {
          "internalType": "bool",
          "name": "",
          "type": "bool"
        }
      ],
      "stateMutability": "nonpayable",
      "type": "function"
    },
    {
      "inputs": [
        {
          "internalType": "address",
          "name": "from",
          "type": "address"
        },
        {
          "internalType": "address",
          "name": "to",
          "type": "address"
        },
        {
          "internalType": "uint256",
          "name": "value",
          "type": "uint256"
        }
      ],
      "name": "transferFrom",
      "outputs": [
        {
          "internalType": "bool",
          "name": "",
          "type": "bool"
        }
      ],
      "stateMutability": "nonpayable",
      "type": "function"
    },
    {
      "inputs": [],
      "name": "uasset",
      "outputs": [
        {
          "internalType": "contract ERC20",
          "name": "",
          "type": "address"
        }
      ],
      "stateMutability": "view",
      "type": "function"
    },
    {
      "inputs": [
        {
          "internalType": "uint256",
          "name": "assets",
          "type": "uint256"
        },
        {
          "internalType": "address",
          "name": "receiver",
          "type": "address"
        },
        {
          "internalType": "address",
          "name": "owner",
          "type": "address"
        }
      ],
      "name": "withdraw",
      "outputs": [
        {
          "internalType": "uint256",
          "name": "",
          "type": "uint256"
        }
      ],
      "stateMutability": "nonpayable",
      "type": "function"
    },
    {
      "inputs": [
        {
          "internalType": "uint256",
          "name": "_shares",
          "type": "uint256"
        },
        {
          "internalType": "address",
          "name": "_receiver",
          "type": "address"
        }
      ],
      "name": "withdrawDeposit",
      "outputs": [],
      "stateMutability": "nonpayable",
      "type": "function"
    }
  ],
  "transactionHash": "0x937284057f9d9c90df749b83ae1df0261d4ca98bd68587a1dca97520727ce257",
  "args": [
    "0xaf88d065e77c8cc2239327c5edb3a432268e5831",
    "DeRamp Token",
    "RAMP",
    "1000000000000000000",
    "1000000000000000",
    0,
    "0x36e7Fda8CC503D5Ec7729A42eb86EF02Af315Bf9"
  ],
  "numDeployments": 1,
  "solcInputHash": "bdf7ad9f727952730dcea9e5b8caf6e6",
  "bytecode": "0x60c06040523480156200001157600080fd5b5060405162002b7b38038062002b7b83398101604081905262000034916200039c565b8686866003620000458382620004de565b506004620000548282620004de565b5050506000806200006b83620000b160201b60201c565b91509150816200007d5760126200007f565b805b60ff1660a05250506001600160a01b0316608052620000a48787878787878762000196565b50505050505050620005e2565b60408051600481526024810182526020810180516001600160e01b031663313ce56760e01b17905290516000918291829182916001600160a01b03871691620000fa91620005aa565b600060405180830381855afa9150503d806000811462000137576040519150601f19603f3d011682016040523d82523d6000602084013e6200013c565b606091505b50915091508180156200015157506020815110155b1562000189576000818060200190518101906200016f9190620005c8565b905060ff811162000187576001969095509350505050565b505b5060009485945092505050565b620001c27ffee3496d1cf613fbb5ad81e23058dfbcd3da0882ad7ea241df9a8240377b8ccf8262000203565b50600880546001600160a01b039889166001600160a01b031991821617909155600793909355600993909355600a55600b8054929095169116179092555050565b60008281526005602090815260408083206001600160a01b038516845290915281205460ff16620002ac5760008381526005602090815260408083206001600160a01b03861684529091529020805460ff19166001179055620002633390565b6001600160a01b0316826001600160a01b0316847f2f8788117e7eff1d82e926ec794901d17c78024a50270940304540a733656f0d60405160405180910390a4506001620002b0565b5060005b92915050565b6001600160a01b0381168114620002cc57600080fd5b50565b634e487b7160e01b600052604160045260246000fd5b60005b8381101562000302578181015183820152602001620002e8565b50506000910152565b600082601f8301126200031d57600080fd5b81516001600160401b03808211156200033a576200033a620002cf565b604051601f8301601f19908116603f01168101908282118183101715620003655762000365620002cf565b816040528381528660208588010111156200037f57600080fd5b62000392846020830160208901620002e5565b9695505050505050565b600080600080600080600060e0888a031215620003b857600080fd5b8751620003c581620002b6565b60208901519097506001600160401b0380821115620003e357600080fd5b620003f18b838c016200030b565b975060408a01519150808211156200040857600080fd5b50620004178a828b016200030b565b955050606088015193506080880151925060a0880151915060c08801516200043f81620002b6565b8091505092959891949750929550565b600181811c908216806200046457607f821691505b6020821081036200048557634e487b7160e01b600052602260045260246000fd5b50919050565b601f821115620004d957600081815260208120601f850160051c81016020861015620004b45750805b601f850160051c820191505b81811015620004d557828155600101620004c0565b5050505b505050565b81516001600160401b03811115620004fa57620004fa620002cf565b62000512816200050b84546200044f565b846200048b565b602080601f8311600181146200054a5760008415620005315750858301515b600019600386901b1c1916600185901b178555620004d5565b600085815260208120601f198616915b828110156200057b578886015182559484019460019091019084016200055a565b50858210156200059a5787850151600019600388901b60f8161c191681555b5050505050600190811b01905550565b60008251620005be818460208701620002e5565b9190910192915050565b600060208284031215620005db57600080fd5b5051919050565b60805160a05161255e6200061d60003960006108e5015260008181610405015281816106b70152818161160c0152611aa1015261255e6000f3fe608060405234801561001057600080fd5b50600436106102e95760003560e01c806394bf804d11610191578063d905777e116100e3578063ef8b30f711610097578063fb8b799211610071578063fb8b799214610639578063fcfb72801461064c578063fd3a1ecd1461065f57600080fd5b8063ef8b30f714610552578063f071f4fd14610606578063f224a0f81461062657600080fd5b8063dd62ed3e116100c8578063dd62ed3e146105b1578063e279d964146105ea578063e6a8071f146105f357600080fd5b8063d905777e1461058b578063d9478d201461059e57600080fd5b8063b460af9411610145578063c6e6f5921161011f578063c6e6f59214610552578063ce96cb7714610565578063d547741f1461057857600080fd5b8063b460af941461052c578063ba0876521461053f578063c63d75b61461043d57600080fd5b8063a217fddf11610176578063a217fddf146104fe578063a9059cbb14610506578063b3d7f6b91461051957600080fd5b806394bf804d146104e357806395d89b41146104f657600080fd5b80632f2ff15d1161024a5780634cdad506116101fe5780636e553f65116101d85780636e553f651461046e57806370a082311461048157806391d14854146104aa57600080fd5b80634cdad506146103415780635a4d30d314610452578063645006ca1461046557600080fd5b806336568abe1161022f57806336568abe146103f057806338d52e0f14610403578063402d267d1461043d57600080fd5b80632f2ff15d146103c1578063313ce567146103d657600080fd5b80630a28a477116102a1578063238c849411610286578063238c84941461038257806323b872dd1461038b578063248a9ca31461039e57600080fd5b80630a28a4771461036757806318160ddd1461037a57600080fd5b806306fdde03116102d257806306fdde031461032c57806307a2d13a14610341578063095ea7b31461035457600080fd5b806301e1d114146102ee57806301ffc9a714610309575b600080fd5b6102f6610686565b6040519081526020015b60405180910390f35b61031c610317366004611e3f565b61072f565b6040519015158152602001610300565b6103346107c8565b6040516103009190611ed1565b6102f661034f366004611ee4565b61085a565b61031c610362366004611f12565b610867565b6102f6610375366004611ee4565b61087f565b6002546102f6565b6102f6600a5481565b61031c610399366004611f3e565b61088c565b6102f66103ac366004611ee4565b60009081526005602052604090206001015490565b6103d46103cf366004611f7f565b6108b2565b005b6103de6108dd565b60405160ff9091168152602001610300565b6103d46103fe366004611f7f565b610909565b7f00000000000000000000000000000000000000000000000000000000000000005b6040516001600160a01b039091168152602001610300565b6102f661044b366004611faf565b5060001990565b6103d4610460366004611fcc565b61095a565b6102f660075481565b6102f661047c366004611f7f565b610b84565b6102f661048f366004611faf565b6001600160a01b031660009081526020819052604090205490565b61031c6104b8366004611f7f565b60009182526005602090815260408084206001600160a01b0393909316845291905290205460ff1690565b6102f66104f1366004611f7f565b610c40565b610334610c7e565b6102f6600081565b61031c610514366004611f12565b610c8d565b6102f6610527366004611ee4565b610c9b565b6102f661053a366004611fcc565b610ca8565b6102f661054d366004611fcc565b610ce8565b6102f6610560366004611ee4565b610d63565b6102f6610573366004611faf565b610d70565b6103d4610586366004611f7f565b610d94565b6102f6610599366004611faf565b610db9565b600b54610425906001600160a01b031681565b6102f66105bf36600461200e565b6001600160a01b03918216600090815260016020908152604080832093909416825291909152205490565b6102f660095481565b600854610425906001600160a01b031681565b6102f6610614366004611faf565b60066020526000908152604090205481565b6103d46106343660046120df565b610dd7565b6103d4610647366004611f7f565b610e5a565b6103d461065a366004612187565b61107e565b6102f67ffee3496d1cf613fbb5ad81e23058dfbcd3da0882ad7ea241df9a8240377b8ccf81565b6040517f70a082310000000000000000000000000000000000000000000000000000000081523060048201526000907f00000000000000000000000000000000000000000000000000000000000000006001600160a01b0316906370a0823190602401602060405180830381865afa158015610706573d6000803e3d6000fd5b505050506040513d601f19601f8201168201806040525081019061072a9190612207565b905090565b60007fffffffff0000000000000000000000000000000000000000000000000000000082167f7965db0b0000000000000000000000000000000000000000000000000000000014806107c257507f01ffc9a7000000000000000000000000000000000000000000000000000000007fffffffff000000000000000000000000000000000000000000000000000000008316145b92915050565b6060600380546107d790612220565b80601f016020809104026020016040519081016040528092919081815260200182805461080390612220565b80156108505780601f1061082557610100808354040283529160200191610850565b820191906000526020600020905b81548152906001019060200180831161083357829003601f168201915b5050505050905090565b60006107c282600061110d565b600033610875818585611147565b5060019392505050565b60006107c2826001611154565b60003361089a858285611184565b6108a5858585611215565b60019150505b9392505050565b6000828152600560205260409020600101546108cd816112a6565b6108d783836112b3565b50505050565b600061072a817f0000000000000000000000000000000000000000000000000000000000000000612270565b6001600160a01b038116331461094b576040517f6697b23200000000000000000000000000000000000000000000000000000000815260040160405180910390fd5b6109558282611361565b505050565b7ffee3496d1cf613fbb5ad81e23058dfbcd3da0882ad7ea241df9a8240377b8ccf610984816112a6565b600084116109ff5760405162461bcd60e51b815260206004820152602260248201527f7769746864726177206d7573742062652067726561746572207468616e205a6560448201527f726f00000000000000000000000000000000000000000000000000000000000060648201526084015b60405180910390fd5b6001600160a01b038216610a555760405162461bcd60e51b815260206004820152600c60248201527f5a65726f2041646472657373000000000000000000000000000000000000000060448201526064016109f6565b6001600160a01b038316600090815260066020526040902054610aba5760405162461bcd60e51b815260206004820152601260248201527f4e6f74206120736861726520686f6c646572000000000000000000000000000060448201526064016109f6565b6001600160a01b038316600090815260066020526040902054841115610b225760405162461bcd60e51b815260206004820152601160248201527f4e6f7420656e6f7567682073686172657300000000000000000000000000000060448201526064016109f6565b6000610b2d8561085a565b9050610b3984826113e8565b600854610b50906001600160a01b0316848761143b565b6001600160a01b03841660009081526006602052604081208054879290610b78908490612289565b90915550505050505050565b6000610baa604051806060016040528060258152602001612504602591393385856114af565b60008311610bfa5760405162461bcd60e51b815260206004820152601660248201527f4465706f736974206c657373207468616e205a65726f0000000000000000000060448201526064016109f6565b6000610c068484611526565b6001600160a01b038416600090815260066020526040812080549293508692909190610c3390849061229c565b9091555090949350505050565b60007ffee3496d1cf613fbb5ad81e23058dfbcd3da0882ad7ea241df9a8240377b8ccf610c6c816112a6565b610c768484611544565b949350505050565b6060600480546107d790612220565b600033610875818585611215565b60006107c282600161110d565b60007ffee3496d1cf613fbb5ad81e23058dfbcd3da0882ad7ea241df9a8240377b8ccf610cd4816112a6565b610cdf858585611562565b95945050505050565b600080610cf483610db9565b905080851115610d49576040517fb94abeec0000000000000000000000000000000000000000000000000000000081526001600160a01b038416600482015260248101869052604481018290526064016109f6565b6000610d548661085a565b9050610cdf338686848a6115d9565b60006107c2826000611154565b6001600160a01b0381166000908152602081905260408120546107c290600061110d565b600082815260056020526040902060010154610daf816112a6565b6108d78383611361565b6001600160a01b0381166000908152602081905260408120546107c2565b610e017ffee3496d1cf613fbb5ad81e23058dfbcd3da0882ad7ea241df9a8240377b8ccf826112b3565b50600880546001600160a01b039889167fffffffffffffffffffffffff000000000000000000000000000000000000000091821617909155600793909355600993909355600a55600b8054929095169116179092555050565b7ffee3496d1cf613fbb5ad81e23058dfbcd3da0882ad7ea241df9a8240377b8ccf610e84816112a6565b60008311610efa5760405162461bcd60e51b815260206004820152602260248201527f7769746864726177206d7573742062652067726561746572207468616e205a6560448201527f726f00000000000000000000000000000000000000000000000000000000000060648201526084016109f6565b6001600160a01b038216610f505760405162461bcd60e51b815260206004820152600c60248201527f5a65726f2041646472657373000000000000000000000000000000000000000060448201526064016109f6565b6001600160a01b038216600090815260066020526040902054610fb55760405162461bcd60e51b815260206004820152601260248201527f4e6f74206120736861726520686f6c646572000000000000000000000000000060448201526064016109f6565b6001600160a01b03821660009081526006602052604090205483111561101d5760405162461bcd60e51b815260206004820152601160248201527f4e6f7420656e6f7567682073686172657300000000000000000000000000000060448201526064016109f6565b60006110288461085a565b905061103483826113e8565b60085461104b906001600160a01b0316848661143b565b6001600160a01b03831660009081526006602052604081208054869290611073908490612289565b909155505050505050565b6110bf6040518060400160405280601881526020017f6f666672616d702066726f6d20257320746f2025732025730000000000000000815250828486611699565b6110c98282610b84565b507f96ca76b94e8cce3317085da1966d0ff7b44bf170f490d943c62a4c8e9db94287838584846040516110ff94939291906122af565b60405180910390a150505050565b60006108ab61111a610686565b61112590600161229c565b6111316000600a6123d9565b60025461113e919061229c565b85919085611710565b610955838383600161175f565b60006108ab61116482600a6123d9565b600254611171919061229c565b611179610686565b61113e90600161229c565b6001600160a01b0383811660009081526001602090815260408083209386168352929052205460001981146108d75781811015611206576040517ffb8f41b20000000000000000000000000000000000000000000000000000000081526001600160a01b038416600482015260248101829052604481018390526064016109f6565b6108d78484848403600061175f565b6001600160a01b038316611258576040517f96c6fd1e000000000000000000000000000000000000000000000000000000008152600060048201526024016109f6565b6001600160a01b03821661129b576040517fec442f05000000000000000000000000000000000000000000000000000000008152600060048201526024016109f6565b610955838383611866565b6112b081336119a9565b50565b60008281526005602090815260408083206001600160a01b038516845290915281205460ff166113595760008381526005602090815260408083206001600160a01b03861684529091529020805460ff191660011790556113113390565b6001600160a01b0316826001600160a01b0316847f2f8788117e7eff1d82e926ec794901d17c78024a50270940304540a733656f0d60405160405180910390a45060016107c2565b5060006107c2565b60008281526005602090815260408083206001600160a01b038516845290915281205460ff16156113595760008381526005602090815260408083206001600160a01b0386168085529252808320805460ff1916905551339286917ff6391f5c32d9c69d2a47ea670b442974b53935d1edc7fd64eb21e047a839171b9190a45060016107c2565b6001600160a01b03821661142b576040517f96c6fd1e000000000000000000000000000000000000000000000000000000008152600060048201526024016109f6565b61143782600083611866565b5050565b6040516001600160a01b0383811660248301526044820183905261095591859182169063a9059cbb906064015b604051602081830303815290604052915060e01b6020820180517bffffffffffffffffffffffffffffffffffffffffffffffffffffffff8381831617835250505050611a17565b6108d7848484846040516024016114c994939291906123e8565b60408051601f198184030181529190526020810180517bffffffffffffffffffffffffffffffffffffffffffffffffffffffff167f63fb8bc500000000000000000000000000000000000000000000000000000000179052611a93565b6000600019600061153685610d63565b9050610c7633858784611a9c565b6000600019600061155485610c9b565b9050610c7633858388611a9c565b60008061156e83610d70565b9050808511156115c3576040517ffe9cceec0000000000000000000000000000000000000000000000000000000081526001600160a01b038416600482015260248101869052604481018290526064016109f6565b60006115ce8661087f565b9050610cdf33868689855b826001600160a01b0316856001600160a01b0316146115fd576115fd838683611184565b61160783826113e8565b6116327f0000000000000000000000000000000000000000000000000000000000000000858461143b565b826001600160a01b0316846001600160a01b0316866001600160a01b03167ffbde797d201c681b91056529119e0b02407c7bb96a4a2c75c01fc9667232c8db858560405161168a929190918252602082015260400190565b60405180910390a45050505050565b6108d7848484846040516024016116b39493929190612424565b60408051601f198184030181529190526020810180517bffffffffffffffffffffffffffffffffffffffffffffffffffffffff167f5a47763200000000000000000000000000000000000000000000000000000000179052611a93565b60008061171e868686611b20565b905061172983611bfd565b801561174557506000848061174057611740612469565b868809115b15610cdf5761175560018261229c565b9695505050505050565b6001600160a01b0384166117a2576040517fe602df05000000000000000000000000000000000000000000000000000000008152600060048201526024016109f6565b6001600160a01b0383166117e5576040517f94280d62000000000000000000000000000000000000000000000000000000008152600060048201526024016109f6565b6001600160a01b03808516600090815260016020908152604080832093871683529290522082905580156108d757826001600160a01b0316846001600160a01b03167f8c5be1e5ebec7d5bd14f71427d1e84f3dd0314c0f7b2291e5b200ac8c7c3b9258460405161185891815260200190565b60405180910390a350505050565b6001600160a01b038316611891578060026000828254611886919061229c565b9091555061191c9050565b6001600160a01b038316600090815260208190526040902054818110156118fd576040517fe450d38c0000000000000000000000000000000000000000000000000000000081526001600160a01b038516600482015260248101829052604481018390526064016109f6565b6001600160a01b03841660009081526020819052604090209082900390555b6001600160a01b03821661193857600280548290039055611957565b6001600160a01b03821660009081526020819052604090208054820190555b816001600160a01b0316836001600160a01b03167fddf252ad1be2c89b69c2b068fc378daa952ba7f163c4a11628f55a4df523b3ef8360405161199c91815260200190565b60405180910390a3505050565b60008281526005602090815260408083206001600160a01b038516845290915290205460ff16611437576040517fe2517d3f0000000000000000000000000000000000000000000000000000000081526001600160a01b0382166004820152602481018390526044016109f6565b6000611a2c6001600160a01b03841683611c2a565b90508051600014158015611a51575080806020019051810190611a4f919061247f565b155b15610955576040517f5274afe70000000000000000000000000000000000000000000000000000000081526001600160a01b03841660048201526024016109f6565b6112b081611c38565b611ac87f0000000000000000000000000000000000000000000000000000000000000000853085611c59565b611ad28382611c92565b826001600160a01b0316846001600160a01b03167fdcbc1c05240f31ff3ad067ef1ee35ce4997762752e3a095284754544f4c709d78484604051611858929190918252602082015260400190565b6000838302816000198587098281108382030391505080600003611b5757838281611b4d57611b4d612469565b04925050506108ab565b808411611b90576040517f227bc15300000000000000000000000000000000000000000000000000000000815260040160405180910390fd5b6000848688096000868103871696879004966002600389028118808a02820302808a02820302808a02820302808a02820302808a02820302808a02909103029181900381900460010186841190950394909402919094039290920491909117919091029150509392505050565b60006002826003811115611c1357611c136124a1565b611c1d91906124b7565b60ff166001149050919050565b60606108ab83836000611ce1565b60006a636f6e736f6c652e6c6f679050600080835160208501845afa505050565b6040516001600160a01b0384811660248301528381166044830152606482018390526108d79186918216906323b872dd90608401611468565b6001600160a01b038216611cd5576040517fec442f05000000000000000000000000000000000000000000000000000000008152600060048201526024016109f6565b61143760008383611866565b606081471015611d1f576040517fcd7860590000000000000000000000000000000000000000000000000000000081523060048201526024016109f6565b600080856001600160a01b03168486604051611d3b91906124e7565b60006040518083038185875af1925050503d8060008114611d78576040519150601f19603f3d011682016040523d82523d6000602084013e611d7d565b606091505b5091509150611755868383606082611d9d57611d9882611dfd565b6108ab565b8151158015611db457506001600160a01b0384163b155b15611df6576040517f9996b3150000000000000000000000000000000000000000000000000000000081526001600160a01b03851660048201526024016109f6565b50806108ab565b805115611e0d5780518082602001fd5b6040517f1425ea4200000000000000000000000000000000000000000000000000000000815260040160405180910390fd5b600060208284031215611e5157600080fd5b81357fffffffff00000000000000000000000000000000000000000000000000000000811681146108ab57600080fd5b60005b83811015611e9c578181015183820152602001611e84565b50506000910152565b60008151808452611ebd816020860160208601611e81565b601f01601f19169290920160200192915050565b6020815260006108ab6020830184611ea5565b600060208284031215611ef657600080fd5b5035919050565b6001600160a01b03811681146112b057600080fd5b60008060408385031215611f2557600080fd5b8235611f3081611efd565b946020939093013593505050565b600080600060608486031215611f5357600080fd5b8335611f5e81611efd565b92506020840135611f6e81611efd565b929592945050506040919091013590565b60008060408385031215611f9257600080fd5b823591506020830135611fa481611efd565b809150509250929050565b600060208284031215611fc157600080fd5b81356108ab81611efd565b600080600060608486031215611fe157600080fd5b833592506020840135611ff381611efd565b9150604084013561200381611efd565b809150509250925092565b6000806040838503121561202157600080fd5b823561202c81611efd565b91506020830135611fa481611efd565b634e487b7160e01b600052604160045260246000fd5b600082601f83011261206357600080fd5b813567ffffffffffffffff8082111561207e5761207e61203c565b604051601f8301601f19908116603f011681019082821181831017156120a6576120a661203c565b816040528381528660208588010111156120bf57600080fd5b836020870160208301376000602085830101528094505050505092915050565b600080600080600080600060e0888a0312156120fa57600080fd5b873561210581611efd565b9650602088013567ffffffffffffffff8082111561212257600080fd5b61212e8b838c01612052565b975060408a013591508082111561214457600080fd5b506121518a828b01612052565b955050606088013593506080880135925060a0880135915060c088013561217781611efd565b8091505092959891949750929550565b6000806000806080858703121561219d57600080fd5b843567ffffffffffffffff808211156121b557600080fd5b6121c188838901612052565b955060208701359150808211156121d757600080fd5b506121e487828801612052565b9350506040850135915060608501356121fc81611efd565b939692955090935050565b60006020828403121561221957600080fd5b5051919050565b600181811c9082168061223457607f821691505b60208210810361225457634e487b7160e01b600052602260045260246000fd5b50919050565b634e487b7160e01b600052601160045260246000fd5b60ff81811683821601908111156107c2576107c261225a565b818103818111156107c2576107c261225a565b808201808211156107c2576107c261225a565b6080815260006122c26080830187611ea5565b82810360208401526122d48187611ea5565b9150508360408301526001600160a01b038316606083015295945050505050565b600181815b808511156123305781600019048211156123165761231661225a565b8085161561232357918102915b93841c93908002906122fa565b509250929050565b600082612347575060016107c2565b81612354575060006107c2565b816001811461236a576002811461237457612390565b60019150506107c2565b60ff8411156123855761238561225a565b50506001821b6107c2565b5060208310610133831016604e8410600b84101617156123b3575081810a6107c2565b6123bd83836122f5565b80600019048211156123d1576123d161225a565b029392505050565b60006108ab60ff841683612338565b6080815260006123fb6080830187611ea5565b6001600160a01b0395861660208401526040830194909452509216606090920191909152919050565b6080815260006124376080830187611ea5565b6001600160a01b0386166020840152846040840152828103606084015261245e8185611ea5565b979650505050505050565b634e487b7160e01b600052601260045260246000fd5b60006020828403121561249157600080fd5b815180151581146108ab57600080fd5b634e487b7160e01b600052602160045260246000fd5b600060ff8316806124d857634e487b7160e01b600052601260045260246000fd5b8060ff84160691505092915050565b600082516124f9818460208701611e81565b919091019291505056fe6465706f7369742066726f6d20257320746f20256420746f6b656e733a207265633a202573a26469706673582212209d90b950edfde24759978aeca3a4fd69ed0dedc2fc8e29ee1d5fbce9f56b1b8664736f6c63430008140033",
  "devdoc": {
    "errors": {
      "AccessControlBadConfirmation()": [
        {
          "details": "The caller of a function is not the expected one. NOTE: Don't confuse with {AccessControlUnauthorizedAccount}."
        }
      ],
      "AccessControlUnauthorizedAccount(address,bytes32)": [
        {
          "details": "The `account` is missing a role."
        }
      ],
      "AddressEmptyCode(address)": [
        {
          "details": "There's no code at `target` (it is not a contract)."
        }
      ],
      "AddressInsufficientBalance(address)": [
        {
          "details": "The ETH balance of the account is not enough to perform the operation."
        }
      ],
      "ERC20InsufficientAllowance(address,uint256,uint256)": [
        {
          "details": "Indicates a failure with the `spender`s `allowance`. Used in transfers.",
          "params": {
            "allowance": "Amount of tokens a `spender` is allowed to operate with.",
            "needed": "Minimum amount required to perform a transfer.",
            "spender": "Address that may be allowed to operate on tokens without being their owner."
          }
        }
      ],
      "ERC20InsufficientBalance(address,uint256,uint256)": [
        {
          "details": "Indicates an error related to the current `balance` of a `sender`. Used in transfers.",
          "params": {
            "balance": "Current balance for the interacting account.",
            "needed": "Minimum amount required to perform a transfer.",
            "sender": "Address whose tokens are being transferred."
          }
        }
      ],
      "ERC20InvalidApprover(address)": [
        {
          "details": "Indicates a failure with the `approver` of a token to be approved. Used in approvals.",
          "params": {
            "approver": "Address initiating an approval operation."
          }
        }
      ],
      "ERC20InvalidReceiver(address)": [
        {
          "details": "Indicates a failure with the token `receiver`. Used in transfers.",
          "params": {
            "receiver": "Address to which tokens are being transferred."
          }
        }
      ],
      "ERC20InvalidSender(address)": [
        {
          "details": "Indicates a failure with the token `sender`. Used in transfers.",
          "params": {
            "sender": "Address whose tokens are being transferred."
          }
        }
      ],
      "ERC20InvalidSpender(address)": [
        {
          "details": "Indicates a failure with the `spender` to be approved. Used in approvals.",
          "params": {
            "spender": "Address that may be allowed to operate on tokens without being their owner."
          }
        }
      ],
      "ERC4626ExceededMaxDeposit(address,uint256,uint256)": [
        {
          "details": "Attempted to deposit more assets than the max amount for `receiver`."
        }
      ],
      "ERC4626ExceededMaxMint(address,uint256,uint256)": [
        {
          "details": "Attempted to mint more shares than the max amount for `receiver`."
        }
      ],
      "ERC4626ExceededMaxRedeem(address,uint256,uint256)": [
        {
          "details": "Attempted to redeem more shares than the max amount for `receiver`."
        }
      ],
      "ERC4626ExceededMaxWithdraw(address,uint256,uint256)": [
        {
          "details": "Attempted to withdraw more assets than the max amount for `receiver`."
        }
      ],
      "FailedInnerCall()": [
        {
          "details": "A call to an address target failed. The target may have reverted."
        }
      ],
      "MathOverflowedMulDiv()": [
        {
          "details": "Muldiv operation overflow."
        }
      ],
      "SafeERC20FailedOperation(address)": [
        {
          "details": "An operation with an ERC20 token failed."
        }
      ]
    },
    "events": {
      "Approval(address,address,uint256)": {
        "details": "Emitted when the allowance of a `spender` for an `owner` is set by a call to {approve}. `value` is the new allowance."
      },
      "RoleAdminChanged(bytes32,bytes32,bytes32)": {
        "details": "Emitted when `newAdminRole` is set as ``role``'s admin role, replacing `previousAdminRole` `DEFAULT_ADMIN_ROLE` is the starting admin for all roles, despite {RoleAdminChanged} not being emitted signaling this."
      },
      "RoleGranted(bytes32,address,address)": {
        "details": "Emitted when `account` is granted `role`. `sender` is the account that originated the contract call, an admin role bearer except when using {AccessControl-_setupRole}."
      },
      "RoleRevoked(bytes32,address,address)": {
        "details": "Emitted when `account` is revoked `role`. `sender` is the account that originated the contract call:   - if using `revokeRole`, it is the admin role bearer   - if using `renounceRole`, it is the role bearer (i.e. `account`)"
      },
      "Transfer(address,address,uint256)": {
        "details": "Emitted when `value` tokens are moved from one account (`from`) to another (`to`). Note that `value` may be zero."
      }
    },
    "kind": "dev",
    "methods": {
      "allowance(address,address)": {
        "details": "See {IERC20-allowance}."
      },
      "approve(address,uint256)": {
        "details": "See {IERC20-approve}. NOTE: If `value` is the maximum `uint256`, the allowance is not updated on `transferFrom`. This is semantically equivalent to an infinite approval. Requirements: - `spender` cannot be the zero address."
      },
      "asset()": {
        "details": "See {IERC4626-asset}. "
      },
      "balanceOf(address)": {
        "details": "See {IERC20-balanceOf}."
      },
      "convertToAssets(uint256)": {
        "details": "See {IERC4626-convertToAssets}. "
      },
      "convertToShares(uint256)": {
        "details": "See {IERC4626-convertToShares}. "
      },
      "decimals()": {
        "details": "Decimals are computed by adding the decimal offset on top of the underlying asset's decimals. This \"original\" value is cached during construction of the vault contract. If this read operation fails (e.g., the asset has not been created yet), a default of 18 is used to represent the underlying asset's decimals. See {IERC20Metadata-decimals}."
      },
      "deposit(uint256,address)": {
        "params": {
          "_assets": "amount of the asset token"
        }
      },
      "getRoleAdmin(bytes32)": {
        "details": "Returns the admin role that controls `role`. See {grantRole} and {revokeRole}. To change a role's admin, use {_setRoleAdmin}."
      },
      "grantRole(bytes32,address)": {
        "details": "Grants `role` to `account`. If `account` had not been already granted `role`, emits a {RoleGranted} event. Requirements: - the caller must have ``role``'s admin role. May emit a {RoleGranted} event."
      },
      "hasRole(bytes32,address)": {
        "details": "Returns `true` if `account` has been granted `role`."
      },
      "maxDeposit(address)": {
        "details": "See {IERC4626-maxDeposit}. "
      },
      "maxMint(address)": {
        "details": "See {IERC4626-maxMint}. "
      },
      "maxRedeem(address)": {
        "details": "See {IERC4626-maxRedeem}. "
      },
      "maxWithdraw(address)": {
        "details": "See {IERC4626-maxWithdraw}. "
      },
      "mint(uint256,address)": {
        "details": "See {IERC4626-mint}. As opposed to {deposit}, minting is allowed even if the vault is in a state where the price of a share is zero. In this case, the shares will be minted without requiring any assets to be deposited."
      },
      "name()": {
        "details": "Returns the name of the token."
      },
      "onramp(uint256,address,address)": {
        "params": {
          "_receiver": "address of the user who will receive the assets",
          "_shares": "amount of shares the user wants to convert"
        }
      },
      "previewDeposit(uint256)": {
        "details": "See {IERC4626-previewDeposit}. "
      },
      "previewMint(uint256)": {
        "details": "See {IERC4626-previewMint}. "
      },
      "previewRedeem(uint256)": {
        "details": "See {IERC4626-previewRedeem}. "
      },
      "previewWithdraw(uint256)": {
        "details": "See {IERC4626-previewWithdraw}. "
      },
      "redeem(uint256,address,address)": {
        "details": "See {IERC4626-redeem}. "
      },
      "renounceRole(bytes32,address)": {
        "details": "Revokes `role` from the calling account. Roles are often managed via {grantRole} and {revokeRole}: this function's purpose is to provide a mechanism for accounts to lose their privileges if they are compromised (such as when a trusted device is misplaced). If the calling account had been revoked `role`, emits a {RoleRevoked} event. Requirements: - the caller must be `callerConfirmation`. May emit a {RoleRevoked} event."
      },
      "revokeRole(bytes32,address)": {
        "details": "Revokes `role` from `account`. If `account` had been granted `role`, emits a {RoleRevoked} event. Requirements: - the caller must have ``role``'s admin role. May emit a {RoleRevoked} event."
      },
      "supportsInterface(bytes4)": {
        "details": "See {IERC165-supportsInterface}."
      },
      "symbol()": {
        "details": "Returns the symbol of the token, usually a shorter version of the name."
      },
      "totalAssets()": {
        "details": "See {IERC4626-totalAssets}. "
      },
      "totalSupply()": {
        "details": "See {IERC20-totalSupply}."
      },
      "transfer(address,uint256)": {
        "details": "See {IERC20-transfer}. Requirements: - `to` cannot be the zero address. - the caller must have a balance of at least `value`."
      },
      "transferFrom(address,address,uint256)": {
        "details": "See {IERC20-transferFrom}. Emits an {Approval} event indicating the updated allowance. This is not required by the EIP. See the note at the beginning of {ERC20}. NOTE: Does not update the allowance if the current allowance is the maximum `uint256`. Requirements: - `from` and `to` cannot be the zero address. - `from` must have a balance of at least `value`. - the caller must have allowance for ``from``'s tokens of at least `value`."
      },
      "withdraw(uint256,address,address)": {
        "details": "See {IERC4626-withdraw}. "
      },
      "withdrawDeposit(uint256,address)": {
        "params": {
          "_receiver": "address of the user who will receive the assets",
          "_shares": "amount of shares the user wants to convert"
        }
      }
    },
    "version": 1
  },
  "userdoc": {
    "kind": "user",
    "methods": {
      "deposit(uint256,address)": {
        "notice": "function to deposit assets and receive vault tokens in exchange"
      },
      "onramp(uint256,address,address)": {
        "notice": "Function to allow msg.sender to withdraw their deposit plus accrued interest"
      },
      "withdrawDeposit(uint256,address)": {
        "notice": "Function to allow msg.sender to withdraw their deposit plus accrued interest"
      }
    },
    "version": 1
  },
  "storageLayout": {
    "storage": [
      {
        "astId": 712,
        "contract": "src/DeRampVault/DeRampVault.sol:DeRampVault",
        "label": "_balances",
        "offset": 0,
        "slot": "0",
        "type": "t_mapping(t_address,t_uint256)"
      },
      {
        "astId": 718,
        "contract": "src/DeRampVault/DeRampVault.sol:DeRampVault",
        "label": "_allowances",
        "offset": 0,
        "slot": "1",
        "type": "t_mapping(t_address,t_mapping(t_address,t_uint256))"
      },
      {
        "astId": 720,
        "contract": "src/DeRampVault/DeRampVault.sol:DeRampVault",
        "label": "_totalSupply",
        "offset": 0,
        "slot": "2",
        "type": "t_uint256"
      },
      {
        "astId": 722,
        "contract": "src/DeRampVault/DeRampVault.sol:DeRampVault",
        "label": "_name",
        "offset": 0,
        "slot": "3",
        "type": "t_string_storage"
      },
      {
        "astId": 724,
        "contract": "src/DeRampVault/DeRampVault.sol:DeRampVault",
        "label": "_symbol",
        "offset": 0,
        "slot": "4",
        "type": "t_string_storage"
      },
      {
        "astId": 26,
        "contract": "src/DeRampVault/DeRampVault.sol:DeRampVault",
        "label": "_roles",
        "offset": 0,
        "slot": "5",
        "type": "t_mapping(t_bytes32,t_struct(RoleData)21_storage)"
      },
      {
        "astId": 12912,
        "contract": "src/DeRampVault/DeRampVault.sol:DeRampVault",
        "label": "shareHolder",
        "offset": 0,
        "slot": "6",
        "type": "t_mapping(t_address,t_uint256)"
      },
      {
        "astId": 12914,
        "contract": "src/DeRampVault/DeRampVault.sol:DeRampVault",
        "label": "minDepositAmount",
        "offset": 0,
        "slot": "7",
        "type": "t_uint256"
      },
      {
        "astId": 12917,
        "contract": "src/DeRampVault/DeRampVault.sol:DeRampVault",
        "label": "uasset",
        "offset": 0,
        "slot": "8",
        "type": "t_contract(ERC20)1204"
      },
      {
        "astId": 12919,
        "contract": "src/DeRampVault/DeRampVault.sol:DeRampVault",
        "label": "maxOnRampAmount",
        "offset": 0,
        "slot": "9",
        "type": "t_uint256"
      },
      {
        "astId": 12921,
        "contract": "src/DeRampVault/DeRampVault.sol:DeRampVault",
        "label": "sustainabilityFee",
        "offset": 0,
        "slot": "10",
        "type": "t_uint256"
      },
      {
        "astId": 12923,
        "contract": "src/DeRampVault/DeRampVault.sol:DeRampVault",
        "label": "sustainabilityFeeRecipient",
        "offset": 0,
        "slot": "11",
        "type": "t_address"
      }
    ],
    "types": {
      "t_address": {
        "encoding": "inplace",
        "label": "address",
        "numberOfBytes": "20"
      },
      "t_bool": {
        "encoding": "inplace",
        "label": "bool",
        "numberOfBytes": "1"
      },
      "t_bytes32": {
        "encoding": "inplace",
        "label": "bytes32",
        "numberOfBytes": "32"
      },
      "t_contract(ERC20)1204": {
        "encoding": "inplace",
        "label": "contract ERC20",
        "numberOfBytes": "20"
      },
      "t_mapping(t_address,t_bool)": {
        "encoding": "mapping",
        "key": "t_address",
        "label": "mapping(address => bool)",
        "numberOfBytes": "32",
        "value": "t_bool"
      },
      "t_mapping(t_address,t_mapping(t_address,t_uint256))": {
        "encoding": "mapping",
        "key": "t_address",
        "label": "mapping(address => mapping(address => uint256))",
        "numberOfBytes": "32",
        "value": "t_mapping(t_address,t_uint256)"
      },
      "t_mapping(t_address,t_uint256)": {
        "encoding": "mapping",
        "key": "t_address",
        "label": "mapping(address => uint256)",
        "numberOfBytes": "32",
        "value": "t_uint256"
      },
      "t_mapping(t_bytes32,t_struct(RoleData)21_storage)": {
        "encoding": "mapping",
        "key": "t_bytes32",
        "label": "mapping(bytes32 => struct AccessControl.RoleData)",
        "numberOfBytes": "32",
        "value": "t_struct(RoleData)21_storage"
      },
      "t_string_storage": {
        "encoding": "bytes",
        "label": "string",
        "numberOfBytes": "32"
      },
      "t_struct(RoleData)21_storage": {
        "encoding": "inplace",
        "label": "struct AccessControl.RoleData",
        "members": [
          {
            "astId": 18,
            "contract": "src/DeRampVault/DeRampVault.sol:DeRampVault",
            "label": "hasRole",
            "offset": 0,
            "slot": "0",
            "type": "t_mapping(t_address,t_bool)"
          },
          {
            "astId": 20,
            "contract": "src/DeRampVault/DeRampVault.sol:DeRampVault",
            "label": "adminRole",
            "offset": 0,
            "slot": "1",
            "type": "t_bytes32"
          }
        ],
        "numberOfBytes": "64"
      },
      "t_uint256": {
        "encoding": "inplace",
        "label": "uint256",
        "numberOfBytes": "32"
      }
    }
  }
}